S0110000746F7765725F6170702E7372656342
S11300000C9410010C9436010C9436010C943601B6
S11300100C9436010C9436010C9436010C94360180
S11300200C9436010C9436010C9431080C94FE07A0
S11300300C9436010C9436010C9436010C94360160
S11300400C9436010C9436010C9436010C94360150
S11300500C9436010C9436010C9436010C94360140
S11300600C9436010C9436010C9436010C94360130
S11300700C9436010C9436010C9436010C94360120
S11300800C9436010C9436010C9436010C94360110
S11300900C9436010C9436010C9436010C94360100
S11300A00C9436010C9436010C9436010C943601F0
S11300B00C9436010C9436010C9436010C943601E0
S11300C00C9436010C9436010C9436010C943601D0
S11300D00C9436010C9436010C9436010C943601C0
S11300E00C9436010C9436010C94BE090C94F60958
S11300F00C9436010C9436010C9436010C943601A0
S11301000C9436010C9436010C9436010C9436018F
S11301100C9436010C9436010C9436010C9436017F
S11301200C9436010C9436010C9436010C9436016F
S11301300C9436010C9436010C9436010C9436015F
S11301400C9436010C9436010C9436010C9436014F
S11301500C9436010C9436010C9436010C9436013F
S11301600C9436010C9436010C9436010C9436012F
S11301700C9436010C9436010C9464080C943601EA
S11301800C9436010C9436010C9436010C9436010F
S11301900C9436010C9436010C9436010C943601FF
S11301A00C9436010C9436010C9436010C943601EF
S11301B00C9436010C9436010C9436010C943601DF
S11301C00C9436010C9436010C9436010C943601CF
S11301D00C9436010C9436010C9436010C943601BF
S11301E00C9436010C9436010C9436010C943601AF
S11301F00C9436010C9436010C9436010C9444078B
S11302000C94D9010C944D0A0C9490090C947A091D
S11302100C9411040C9497060C9478070C9498038E
S113022011241FBECFEFCDBFDFE3DEBF00E00CBF64
S113023018BE19BE1ABE1BBE10E2A0E0B0E2E4E391
S1130240FDE100E00BBF02C007900D92AE37B1078D
S1130250D9F71BBE23E2AEE7B0E201C01D92A0367F
S1130260B207E1F70E949A080C94960E0C940000D1
S1130270A0917E20B0917F20109769F0ED91FC91C0
S1130280119712968D919C91139780937E20909351
S11302907F201995EDCF0895CF93DF93EC0184E08F
S11302A090E00E94760A009781F0FC01C083D1831C
S11302B020917E2030917F202283338380937E207F
S11302C090937F2080E090E002C081E090E0DF9195
S11302D0CF910895FC018083918382839383089551
S11302E0FC01828193810895CF93DF93EC010E94F6
S11302F0700121E0C817D90709F020E0822FDF91AF
S1130300CF910895FC01DB0112968D939C93139772
S1130310808191818D939C93A081B18112966D937C
S11303207C93139760837183CB0108950E947401B9
S113033091E089270895CF93DF93EC010E94960101
S1130340882381F0E881F9818A819B818283938368
S1130350EA81FB818881998180839183CE010E9407
S11303606A0102C080E090E0DF91CF910895CF93BD
S1130370DF93EC010E947401811104C0CE010E943C
S1130380700102C080E090E0DF91CF910895CF9397
S1130390DF93EC010E947401811106C0CE010E941A
S11303A070010E949B0102C080E090E0DF91CF9138
S11303B008950895CF92DF92EF92FF920F931F93C7
S11303C0CF93DF938C016A017B010E947401811138
S11303D01AC0C8010E947001EC010FC0CE010E9436
S11303E074039B01AC01C701B6010E94E9078111A6
S11303F00DC0CE010E947001EC01C017D10771F746
S11304008C2F9D2F05C0802F912F02C08C2F9D2FE4
S1130410DF91CF911F910F91FF90EF90DF90CF90DC
S11304200895CF92DF92EF92FF920F931F93CF9391
S1130430DF93EC010E9474036B017C01CE010E94E6
S113044073030E949B01892B09F00000B701A601E8
S11304508CE890E20E94DA018C01CE010E947303C1
S1130460BC01C8010E94820180E0DF91CF911F91FD
S11304700F91FF90EF90DF90CF9008958CE890E279
S11304800E94B701009711F480E090E0089586E996
S113049090E20E94140304C08CE890E20E94C70119
S11304A08CE890E20E9474018823B1F310929420A6
S11304B0109295200895ECE8F0E288E797E08483B1
S11304C0958380E890E28683978328E130E240E0D8
S11304D050E069ED71E00E94560348E050E06EE997
S11304E070E286E990E20E941B038CE890E20E948D
S11304F06A010E944702089580919220909193206E
S11305000895CF92DF92EF92FF92CF93DF936B0126
S11305107C010E943E02EC01009769F00E94740382
S1130520A70196010E94F207811105C08CE890E2B0
S11305300E94C70103C00E947C02EC01CE01DF913E
S1130540CF91FF90EF90DF90CF900895E0919020AD
S1130550F091912019950895CF92DF92EF92FF9236
S11305600F931F93CF93DF931F921F92CDB7DEB7E4
S11305700E94A6026B017C0104C089819A810E94B9
S11305801102BE016F5F7F4F86E990E20E94310342
S1130590882399F3C701B6010E9481020CE810E296
S11305A0F8018087918760E070E00E948003F80181
S11305B01086118680E00F900F90DF91CF911F91EC
S11305C00F91FF90EF90DF90CF900895CF93DF933A
S11305D0EC010E94A602AB01BC01CE010E947A0389
S11305E0CE010E941102DF91CF910895CF92DF9244
S11305F0EF92FF92CF93DF93EC016A017B010E949B
S1130600A602A70196010E94E407AB01BC01CE013A
S11306100E947A03CE010E941102DF91CF91FF90D4
S1130620EF90DF90CF900895FC0112821382148220
S1130630158280E008954115510579F09A01215001
S1130640310942235323452B51F4FC012083318388
S1130650668377830E941403089583E0089583E0FA
S11306600895FC01228133818481958128173907FB
S113067029F4DB011D921C9281E008958681978103
S1130680A281B381AA0FBB1FA80FB91F8D919C91A2
S1130690DB018D939C93828193810196208131812A
S11306A0822393238283938380E00895EF92FF92C1
S11306B00F931F93CF93DF93EC018B017A010E9478
S11306C06A011C821D821E821F82A701B801CE010D
S11306D008960E948603CE01DF91CF911F910F915E
S11306E0FF90EF9008950895FC01648175818681DF
S11306F097810895FC014483558366837783089525
S1130700009719F008960E948C030895FC016083F9
S11307107183428353830895009749F0DC01ED917E
S1130720FC91119712968D919C91139719950895A8
S11307308DE190E29F938F9380E290E29F938F9359
S113074083E290E29F938F930E94DA0B0F900F90B5
S11307500F900F900F900F900895882319F088E25E
S113076090E202C08DE290E29F938F9380E290E248
S11307709F938F9383E290E29F938F930E94DA0B6F
S11307800F900F900F900F900F900F90089582E3A9
S113079090E20E94EE0B08958BE390E20E94EE0B30
S11307A00895811117C0611105C082E390E20E948F
S11307B0EE0B089570E06F5F7F4F7F936F938DE42E
S11307C090E29F938F930E94DA0B0F900F900F90FB
S11307D00F90089561110FC090E001969F938F933D
S11307E084E590E29F938F930E94DA0B0F900F9011
S11307F00F900F90089570E06F5F7F4F7F936F931A
S113080090E001969F938F938AE590E29F938F9354
S11308100E94DA0B0F900F900F900F900F900F9093
S113082008950F931F93CF93DF93EC018889813050
S1130830A1F018F0823091F141C08C859D850E9411
S1130840A504873019F481E0888B38C061E070E03A
S11308508C859D850E94B10431C08E85082F10E0DF
S11308608C859D850E94A2049801281B3109C90129
S1130870181619063CF461E070E08C859D850E9491
S1130880AC041CC099233CF46FEF7FEF8C859D85ED
S11308900E94AC0413C082E0888B10C08C859D85B7
S11308A00E94A5049F85891303C083E0888B06C03A
S11308B06FEF7FEF8C859D850E94B1040E94F50641
S11308C08889833041F048E150E060E070E0CE0177
S11308D00E94F60206C089899A89009711F00E9445
S11308E0E602DF91CF911F910F910895EF92FF924D
S11308F00F931F93CF93DF937C01062F142FE901ED
S113090021E730E24EEA50E261E174E0CA010E945C
S11309105603EEEAF0E2E486F58606871787108A26
S1130920C18BD28BCF01DF91CF911F910F91FF909B
S1130930EF900895FC011082118262830895FC01F6
S113094082810895FC0183810895FC0184810895C6
S1130950FC01638344830895FC012381620F638354
S11309600895FC012481620F648308950F931F93FB
S1130970CF93DF938C01C0E0D0E00BC0F8018381FA
S11309808C0F96954DE3F8016481891B0E940E0536
S11309902196F8019281292F30E0C217D30774F30E
S11309A0DF91CF911F910F910895E1ECF0E28483E0
S11309B06583408351832283338308950F931F9368
S11309C0CF93DF930E94C7030E94CC03C1ECD0E213
S11309D08C810D81809F80011124A80160E270E068
S11309E0888199810E94970BA80160E270E08A8156
S11309F09B810E94970BDF91CF911F910F910895D6
S1130A00E1ECF0E284814581849FA001112460E23D
S1130A1070E0808191810E94970B0895A1ECB0E26F
S1130A20ED91FC91119715962C91159730E0261BAA
S1130A3031092150310914969C91929FB001939FE2
S1130A40700D1124680F711DE60FF71F4083089580
S1130A50FF920F931F93CF93DF93F12CC0E0D0E06C
S1130A602DC0A1ECB0E2ED91FC911197EC0FFD1FAC
S1130A7000811296ED91FC911397EC0FFD1F80817C
S1130A80081799F0612F8F2D0E94D10360915C2388
S1130A9070915D23802F90E00E949E0BE091C32013
S1130AA0F091C420EC0FFD1F008321961F5F01C04D
S1130AB010E08091C5201817A0F2F3948091C6200D
S1130AC0F816B0F30E94C703DF91CF911F910F91E5
S1130AD0FF900895FC0160831182128208950F93A0
S1130AE01F93CF93DF938C01C0E0D0E008C06C2F3C
S1130AF06F5F43E2F80180810E940E052196C530A4
S1130B00D105ACF3C0E0D0E009C0F80180818C0FBE
S1130B1043E260E085500E940E052196CB30D1055A
S1130B20A4F3DF91CF911F910F910895FC0180816F
S1130B300895DC011196ED91FC91129780E004C0B8
S1130B408F5F0190F081E02D3097D1F708950E94D6
S1130B5099050895FC0121813281FB0120833183B1
S1130B60FC01618372830895DC011196ED91FC917F
S1130B701297309741F02081318111962D933C9347
S1130B80129710821182CF010895FC018181928114
S1130B900895CF92DF92EF92FF920F931F93CF931A
S1130BA0DF93C82ED92ED62FC72F0E94C5058C01DE
S1130BB08D2F9C2F0E94C5057C010115110511F490
S1130BC0892B91F00115110591F0E114F10491F0D4
S1130BD0C8010E949F04182FC7010E949F04811717
S1130BE060F48C2D9D2D0BC080E090E008C08C2D0E
S1130BF09D2D05C08D2F9C2F02C08D2F9C2FDF9122
S1130C00CF911F910F91FF90EF90DF90CF900895B7
S1130C10FF920F931F93CF93DF93EB010E94B405D0
S1130C208C01BC01CE010E94AA05CE010E94A70539
S1130C30F82ECE010E94960529E233E24F2D682F4B
S1130C40C8010E9476040E94E602DF91CF911F91B1
S1130C500F91FF9008950F931F93CF93DF93EC01AF
S1130C608B010E94C905009779F0C817D90731F4A0
S1130C70BE01C8010E94080681E007C0B801CE0188
S1130C800E94080681E001C080E0DF91CF911F91AE
S1130C900F910895FF920F931F93CF93DF931092B8
S1130CA03523C0E0D0E011C08C2F880F8C0F682F43
S1130CB0660F660F6A5FCE01880F991F8C0F9D1F08
S1130CC089539F4D0E946A052196C330D10564F370
S1130CD004E010E024C0E801CC0FDD1FCC0FDD1FC1
S1130CE0C00FD11FC053DF4D602F660F6F5FCE0161
S1130CF00E949A04BE0187EC90E20E94AA0587EC48
S1130D0090E20E94A705F82E87EC90E20E949605D7
S1130D104F2D682FCE010E94A80401501109112300
S1130D20D4F6DF91CF911F910F91FF900895CF9347
S1130D30DF93EC018C85811107C06DEC70E287ECC8
S1130D4090E20E942B060FC0813039F46AEC70E205
S1130D5087EC90E20E942B0606C06DEC70E28AECF0
S1130D6090E20E942B069C85923018F49F5F9C872A
S1130D7001C01C8681110AC00E944A0642E153E167
S1130D8060E070E089E293E20E94F602DF91CF9185
S1130D9008950E946F070E945B0280E00E94AD03E9
S1130DA080E090E00E94250727E730E249E253E221
S1130DB067E976E0CA010E94560329EE30E249E071
S1130DC052E268E084E20E94D50488E993E00E943C
S1130DD04C010E94DE040E944A0689E293E20E94CA
S1130DE0E60208950E94AC020895CF93DF930E9417
S1130DF00005C0E0D0E00AC0CE01880F991F8C0F17
S1130E009D1F89539F4D0E946F052196C330D105C4
S1130E109CF3C0E0D0E00CC0CE01880F991F880F6E
S1130E20991F8C0F9D1F80539F4D0E94B6042196DD
S1130E30C530D1058CF30E942805DF91CF91089528
S1130E40109236231092372308958093362390937B
S1130E50372308958091C8078695869591E0892760
S1130E6081700895CF93DF93C0913623D0913723B7
S1130E70209739F080E00E942A07682F80E0FE0165
S1130E801995DF91CF910895CF93C091A00A0E9444
S1130E907A09E0913823F0913923309711F08C2F9F
S1130EA01995CF91089561E084E497E00E94AF0919
S1130EB00E94700A7894109238231092392308956E
S1130EC0613021F088E08093C507089588E080931D
S1130ED0C607089560E080E00E94600708950E94BC
S1130EE020070E9453070E946A070E94B7070895CB
S1130EF00F931F9380913C2390913D2360910804AC
S1130F007091090408C080913C2390913D23609125
S1130F1008047091090420913C2330913D238217E9
S1130F20930789F7A0E0B0E0DC0199278827AB019B
S1130F3060E070E08C019D01042B152B262B372BD0
S1130F40C901B8011F910F91089580933E23909396
S1130F503F23892B21F481E08093020403C085E0C0
S1130F6080930204809101048111FCCF0895809143
S1130F7001048111FCCF81E08093000480E090E0C3
S1130F800E94A50710923C2310923D2308952091BE
S1130F903A2330913B2380913C2390913D232817A1
S1130FA0390739F4E0913E23F0913F23309709F05B
S1130FB01995089580913C2390913D230196809347
S1130FC03C2390933D230895620F731F841F951F44
S1130FD00895E1E0621773078407950708F0E0E0DD
S1130FE08E2F0895E1E0261737074807590708F0C0
S1130FF0E0E08E2F08950E943F0908951F920F92FA
S11310000FB60F92112408B60F9218BE09B60F92AC
S113101019BE0BB60F921BBE2F933F934F935F9352
S11310206F937F938F939F93AF93BF93EF93FF93AC
S11310300E94C707FF91EF91BF91AF919F918F914C
S11310407F916F915F914F913F912F910F900BBEC4
S11310500F9009BE0F9008BE0F900FBE0F901F9007
S113106018951F920F920FB60F92112408B60F9283
S113107018BE09B60F9219BE0BB60F921BBE2F9362
S11310803F934F935F936F937F938F939F93AF930C
S1131090BF93EF93FF930E94DA07FF91EF91BF9103
S11310A0AF919F918F917F916F915F914F913F91FC
S11310B02F910F900BBE0F9009BE0F9008BE0F909A
S11310C00FBE0F901F9018951F920F920FB60F929C
S11310D0112408B60F9218BE09B60F9219BE0BB6AA
S11310E00F921BBE2F933F934F935F936F937F9306
S11310F08F939F93AF93BF93EF93FF930E94320715
S113110081E08093CC07FF91EF91BF91AF919F91C4
S11311108F917F916F915F914F913F912F910F909C
S11311200BBE0F9009BE0F9008BE0F900FBE0F901C
S11311301F9018950E94FB070E94C9060E94F206A0
S1131140FDCF83E08093430080E0089580E008C0F1
S1131150E82FF0E0E05FF94F9081986190838F5F12
S11311608830B0F380E008C0E82FF0E0E05DF94F8C
S11311709081986190838F5F8830B0F380E008C0DD
S1131180E82FF0E0E05BF94F9081986190838F5FE6
S11311908830B0F380E008C0E82FF0E0E059F94F60
S11311A09081986190838F5F8830B0F380E008C0AD
S11311B0E82FF0E0E057F94F9081986190838F5FBA
S11311C08830B0F380E008C0E82FF0E0E055F94F34
S11311D09081986190838F5F8830B0F380E008C07D
S11311E0E82FF0E0E051F94F9081986190838F5F90
S11311F08830B0F380E008C0E82FF0E0E05FF84FFB
S11312009081986190838F5F8830B0F380E008C04C
S1131210E82FF0E0E05DF84F9081986190838F5F54
S11312208830B0F380E008C0E82FF0E0E053F84FD6
S11312309081986190838F5F8830B0F380E008C01C
S1131240E82FF0E0E051F84F9081986190838F5F30
S11312508830B0F308950E94730908950E947809B4
S11312600895E0E8F6E084E08283A2E9B6E08C9198
S11312701C9288E0818386830E94520A08950E940A
S1131280A608E0ECF7E084E082838583A2EDB7E072
S11312909C911C929C9198619C939C91987F9C93A7
S11312A0918591609187918591878287138688E0E3
S11312B0818385830E9467090E94A1080E942B09EB
S11312C00E946D090E942E090E943109089580919F
S11312D0510080FFFCCF80E00895789481E08093F2
S11312E0A20080E0089585E08093020480E00895E0
S11312F080E008959091A00AE0914D23EF5FE7709C
S113130080914C23E81759F0E0934D23F0E0E25B21
S1131310FC4D908380914B238F5F80934B230895E2
S113132080914023882389F0E0914123EF5FE770A7
S1131330E0934123F0E0ED5BFC4D80818093A00AB3
S113134080914023815080934023809140238111D8
S113135005C0E0EAFAE083818C7F838308956130DD
S113136019F0623031F00895809308209093092099
S11313700895809306209093072008951F920F925A
S11313800FB60F92112408B60F9218BE09B60F9229
S113139019BE0BB60F921BBE2F933F934F935F93CF
S11313A06F937F938F939F93AF93BF93EF93FF9329
S11313B0E0910820F0910920309709F01995FF91E8
S11313C0EF91BF91AF919F918F917F916F915F91B9
S11313D04F913F912F910F900BBE0F9009BE0F902C
S11313E008BE0F900FBE0F901F9018951F920F927A
S11313F00FB60F92112408B60F9218BE09B60F92B9
S113140019BE0BB60F921BBE2F933F934F935F935E
S11314106F937F938F939F93AF93BF93EF93FF93B8
S1131420E0910620F0910720309709F01995FF917B
S1131430EF91BF91AF919F918F917F916F915F9148
S11314404F913F912F910F900BBE0F9009BE0F90BB
S113145008BE0F900FBE0F901F9018952091422345
S11314602F5F2770909140239830E1F3E22FF0E052
S1131470ED5BFC4D8083209342230FB6F8940F92CA
S1131480809140238F5F809340230F900FBEE0EA4A
S1131490FAE083818160838308950E942E0A80E0AC
S11314A090E00895E0EAFAE080E987838BE08683A0
S11314B081E1838388E1848310924C2310924D232D
S11314C010924B23109241231092422310924023F6
S11314D08AE090E280935C2390935D2380E00895FA
S11314E0E0EAFAE084818861848308950F931F936E
S11314F0CF93DF938230910510F482E090E0E09185
S11315005823F091592320E030E0A0E0B0E0309778
S113151019F1408151810281138148175907C8F09C
S11315208417950769F4109731F012960C9312976B
S113153013961C9327C0009358231093592322C059
S11315402115310519F04217530718F49A01BD010A
S1131550EF01DF01F801DBCF21153105F9F0281B7C
S1131560390B2430310580F48A819B816115710522
S113157021F0FB018283938304C0809358239093CA
S11315805923FE01329644C0FE01E20FF31F8193FA
S1131590919322503109288339833AC020915623EC
S11315A030915723232B41F42091022030910320C2
S11315B0209356233093572320910020309101200B
S11315C02115310541F42DB73EB7409104205091C7
S11315D00520241B350BE0915623F0915723E21785
S11315E0F307A0F42E1B3F0B2817390778F0AC0142
S11315F04E5F5F4F2417350748F04E0F5F1F40932F
S11316005623509357238193919302C0E0E0F0E076
S1131610CF01DF91CF911F910F910895CF93DF9365
S1131620009709F481C0FC01329712821382A091C1
S11316305823B0915923109781F420813181820F6E
S1131640931F20915623309157232817390751F5BA
S1131650E0935623F093572367C0ED0120E030E078
S1131660CE17DF0740F44A815B819E014115510585
S1131670F1F0EA01F5CFC283D38340815181840F15
S1131680951FC817D90759F488819981840F951F2C
S11316900296808391838A819B818283938321151F
S11316A0310529F4E0935823F09359233DC0E9010F
S11316B0EA83FB8349915991C40FD51FEC17FD07A9
S11316C061F480819181840F951F0296E9018883DA
S11316D09983828193818A839B83E0E0F0E0129670
S11316E08D919C911397009719F0FD01DC01F7CFC0
S11316F08D919C9111979D012E5F3F4F820F931FF7
S113170020915623309157232817390769F43097CD
S113171029F4109258231092592302C01282138282
S1131720A0935623B0935723DF91CF910895DC0102
S113173001C06D9341505040E0F708950F931F93FB
S1131740CF93DF93FB01238121FD03C08FEF9FEF34
S11317502CC022FF16C0468157812481358142174F
S1131760530744F4A081B1819D012F5F3F4F208333
S113177031838C93268137812F5F3F4F26833783B4
S113178014C08B01EC01FB010084F185E02D199557
S1131790892BE1F6D80116968D919C9117970196A5
S11317A016968D939C931797CE01DF91CF911F913D
S11317B00F910895CF93DF93CDB7DEB7AE014A5FA3
S11317C05F4FFA0161917191AF0180915C23909117
S11317D05D230E941E0CDF91CF9108950F931F93F8
S11317E0CF93DF93E0915C23F0915D23238121FF6C
S11317F01BC08C01D0E0C0E0F80181918F016091A1
S11318005C2370915D23DB011896ED91FC9119978F
S1131810882331F01995892B79F3DFEFCFEFECCFE3
S11318208AE01995892B19F08FEF9FEF02C08D2F55
S11318309C2FDF91CF911F910F9108952F923F928A
S11318404F925F926F927F928F929F92AF92BF92CC
S1131850CF92DF92EF92FF920F931F93CF93DF9378
S1131860CDB7DEB72B97CDBFDEBF6C017B018A01FC
S1131870FC0116821782838181FFCCC1CE010196BF
S11318803C01F6019381F70193FD859193FF8191CA
S11318907F01882309F4BAC1853239F493FD859117
S11318A093FF81917F01853229F4B60190E00E9473
S11318B09E0BE7CF912C212C312CFFE1F315D8F0AE
S11318C08B3279F038F4803279F08332A1F4232D0D
S11318D020611DC08D3261F0803369F4232D2160B5
S11318E016C0832D8260382EE32DE4603E2E2AC07C
S11318F0F32DF8601DC037FC2DC020ED280F2A30D1
S113190040F08E32B9F436FC81C1232D2064322E8E
S113191019C036FE06C08AE0989E200D1124922E2E
S113192011C0EAE02E9E200D1124222EF32DF06228
S11319303F2E08C08C3621F4832D8068382E02C0D7
S1131940883641F4F70193FD859193FF81917F01DE
S11319508111B3CF982F9F7D9554933028F40C5F59
S11319601F4F9FE399830DC0833631F0833771F0A5
S1131970833509F059C021C0F801808189830E5F45
S11319801F4F88248394912C530113C02801F2E043
S11319904F0E511CF801A080B18036FE03C0692DA2
S11319A070E002C06FEF7FEFC5010E942D0E4C0165
S11319B08201F32DFF773F2E16C0280122E0420E4C
S11319C0511CF801A080B18036FE03C0692D70E07F
S11319D002C06FEF7FEFC5010E94220E4C01F32D70
S11319E0F0683F2E820133FC1BC0822D90E08816E4
S11319F09906B0F4B60180E290E00E949E0B2A940E
S1131A00F4CFF50137FC859137FE81915F01B60172
S1131A1090E00E949E0B21102A9421E0821A9108E2
S1131A208114910471F7E8C0843611F0893641F5C8
S1131A30F80137FE07C060817181828193810C5F58
S1131A401F4F08C060817181072E000C880B990B11
S1131A500E5F1F4FF32DFF763F2E97FF09C0909521
S1131A608095709561957F4F8F4F9F4FF0683F2E03
S1131A702AE030E0A3010E94380E882E861845C063
S1131A80853731F4232D2F7EB22E2AE030E025C095
S1131A90932D997FB92E8F36C1F018F4883579F0DB
S1131AA0B5C0803719F0883721F0B0C0E92FE06164
S1131AB0BE2EB4FE0DC0FB2DF460BF2E09C034FE53
S1131AC00AC0292F2660B22E06C028E030E005C0E7
S1131AD020E130E002C020E132E0F801B7FE07C0A7
S1131AE060817181828193810C5F1F4F06C0608188
S1131AF0718180E090E00E5F1F4FA3010E94380EB9
S1131B00882E8618FB2DFF773F2E36FE0DC0232D21
S1131B102E7FA22E891458F434FE0BC032FC09C067
S1131B20832D8E7EA82E05C0B82CA32C03C0B82C00
S1131B3001C0B92CA4FE0FC0FE01E80DF11D808187
S1131B40803321F49A2D997EA92E09C0A2FE06C0E5
S1131B50B394B39404C08A2D867809F0B394A3FC9B
S1131B6011C0A0FE06C0B21488F4280C922C9B1855
S1131B700EC0B21460F4B60180E290E00E949E0BA5
S1131B80B394F7CFB21418F42B1802C0982C212C5C
S1131B90A4FE10C0B60180E390E00E949E0BA2FE5A
S1131BA017C0A1FC03C088E790E002C088E590E07C
S1131BB0B6010CC08A2D867859F0A1FE02C08BE2D2
S1131BC001C080E2A7FC8DE2B60190E00E949E0B6A
S1131BD0891438F4B60180E390E00E949E0B9A9435
S1131BE0F7CF8A94F301E80DF11D8081B60190E0EE
S1131BF00E949E0B8110F5CF222009F442CEB6013B
S1131C0080E290E00E949E0B2A94F6CFF601868132
S1131C10978102C08FEF9FEF2B96CDBFDEBFDF9180
S1131C20CF911F910F91FF90EF90DF90CF90BF90D5
S1131C30AF909F908F907F906F905F904F903F9068
S1131C402F900895FC010590615070400110D8F761
S1131C50809590958E0F9F1F0895FC0161507040F0
S1131C6001900110D8F7809590958E0F9F1F0895CD
S1131C70FA01AA27283051F1203181F1E8946F93B9
S1131C806E7F6E5F7F4F8F4F9F4FAF4FB1E03ED05F
S1131C90B4E03CD0670F781F891F9A1FA11D680FFD
S1131CA0791F8A1F911DA11D6A0F711D811D911D30
S1131CB0A11D20D009F468943F912AE0269F1124A5
S1131CC03019305D3193DEF6CF010895462F477009
S1131CD0405D4193B3E00FD0C9F7F6CF462F4F7064
S1131CE0405D4A3318F0495D31FD4052419302D0C2
S1131CF0A9F7EACFB4E0A695979587957795679568
S1131D00BA95C9F700976105710508959B01AC0167
S1131D100A2E06945795479537952795BA95C9F78E
S1131D20620F731F841F951FA01D08950E94380120
S1071D30F894FFCF51
S1131D3400006023200090097A09000000020000DA
S1131D4400004D0A0000000049646C6500306D0019
S1131D541B5B0025732573003F323568003F323521
S1131D646C001B5B48001B5B334A001B5B324A005C
S1131D741B5B4A001B5B324B001B5B4B001B5B3B36
S1131D84256448001B5B256448001B5B25643B25D4
S1131D946448001B5B366E001B5B25643B25646D45
S1111DA4004D6F76657200546F776572000013
S9030000FC
