S01300004C454420666C61736865722E7372656337
S1130000A82000202D010000290100002901000082
S113001000000000000000000000000000000000DC
S113002000000000000000000000000029010000A2
S11300300000000000000000290100002901000068
S11300402901000029010000290100002901000004
S113005029010000290100002901000029010000F4
S113006029010000290100002901000029010000E4
S113007029010000290100002901000029010000D4
S113008029010000290100002901000029010000C4
S113009029010000290100002901000029010000B4
S11300A029010000290100002901000029010000A4
S11300B00000000010B5064C2378002B07D1054B37
S11300C0002B02D0044800E000BF0123237010BDC0
S11300D064000020000000007C1D0000084B10B5E7
S11300E0002B03D00749084800E000BF0748036815
S11300F0002B00D110BD064B002BFBD09847F9E72D
S113010000000000680000207C1D00007C1D000031
S11301100000000010B5024B9847024B984710BDF1
S113012095020000C5090000FEE70000F8B5234A67
S1130130234B9A4209D0224B204A03E011681960EC
S1130140043304321F498B42F8D31F4B02E00022D0
S11301501A6004331D4A9342F9D31D4AFF211D4BF3
S11301608B439360FD3990235B001B4AD1501B4A9B
S1130170D3780325AB4302242343D370D3780C27CD
S1130180BB4308263343D370154B987B30229043EE
S1130190202210439873997BB943314399739A7B16
S11301A0AA4322439A730F4A516880230B43536036
S11301B00D4B98470D4B9847FEE7C0467C1D000049
S11301C0000000206400002064000020A40000203F
S11301D000ED00E00000000000700041005000410C
S11301E00048004100400041FD0A0000B50800003D
S11301F030B50F4B5622995C0125A94301242143B4
S1130200C9B299543B20195C473A914302221143E5
S1130210C9B2195457215A5CAA432243D2B25A5440
S11302201A5C48390A4020210A43D2B21A5430BD1C
S113023000440041044A136A20210B431362034A19
S1130240034B5A807047C046000400401741000029
S1130250000C004010B5054B98470022044905489E
S1130260054B9847054B984710BDC0463502000022
S1130270001400429400002061040000F101000019
S113028010B50248024B984710BDC04610E000E08C
S1130290DD02000010B50C4B9847C023DB0580221B
S11302A0D20594215A500C395A50084B20315A50D7
S11302B0074A5A5036315A5C012082435A54054B3E
S11302C09847054B984710BD29050000004400419C
S11302D0004000C0550200008102000010B5024B2E
S11302E01860024B984710BD800000205D08000094
S11302F010B5044B1C68044B984701002000034BC5
S1130300984710BD800000201D05000075080000FE
S113031070B504000D00160000280ED000290AD084
S1130320012034220649074B9847236832002900EC
S11303302000984770BD0020F3E70020F1E7C04695
S11303400C1C0000D904000070B504000D00160058
S113035000280ED000290AD001203D220649074B6F
S113036098476368320029002000984770BD002038
S1130370F3E70020F1E7C0460C1C0000D90400009C
S1130380F8B505000E001700002823D0002923D05B
S1130390002A23D10020F1221149124B98472C0046
S11303A008342000104B98470028F8D00025715DD0
S11303B020000E4B984720000B4B98470028FAD09A
S11303C00135BD42F3D32000094B98470028FAD0E9
S11303D02800F8BD0020DEE70020DCE70120DAE792
S11303E0201C0000D90400006B0700005B0700001C
S11303F075070000F8B5CE46474680B5051E884609
S113040091461FD000291FD0002A1FD10020862228
S113041052000F490F4B984700262C000834200047
S11304200D4B98470028F8D043469F1920000B4BEA
S11304309847387001364E45EFD330000CBC9046D7
S11304409946F8BD0020E2E70020E0E70120DEE75E
S1130450201C0000D904000081070000630700008D
S113046070B504000D00002814D0002910D001201C
S113047034220949094B9847200008302900084BC9
S11304809847002803D1074B6360074B236070BD76
S11304900020EDE70020EBE7201C0000D904000059
S11304A01D070000F50300008103000010B50400DF
S11304B0431E9841C0B253220449054B984720007B
S11304C00830044B9847002010BDC046201C000093
S11304D0D904000049070000002800D100BE70477D
S11304E00300064A1268002A04D0044A1068C3189C
S11304F0136070470249014A1160F6E78400002046
S1130500A820002001204042704780239B014B60BB
S113051000207047012070470020704703011B1A18
S1130520DA0064205043704710B5074B5A685A608C
S1130530064B9847064B98470820064CA047064BA5
S11305409847F720A04710BD00400041B9050000BE
S11305508D0700005D050000C1070000C30709D531
S1130560114B8022D2009A60104A5A600E4B5B787D
S1130570DB09FBD1830709D50B4B0222FF329A60BA
S11305800B4A5A60084B5B78DB09FBD1030709D59A
S1130590054B0422FF329A60064A5A60024B5B788C
S11305A0DB09FBD17047C046000C00400007010086
S11305B00107090003050B00064B1A7AD2B21A721E
S11305C05A7AD2B25A729A7AD2B29A72DA7AD2B287
S11305D0DA72704700040040024B9C466044800A73
S11305E0C0B2704700F8FFBD10B50B4B984702002E
S11305F00020002806D0094A09490020094B9847E1
S1130600002010BD83001B189900074BCB5C9A4255
S1130610F7D00130C0B2ECE7D90500003A0200007F
S11306208C1C0000D90400003C1C000070B50400C0
S1130630384B9847E369DB071DD483001B189A00E5
S1130640354B9B185A681C231A40E3699B07FCD15D
S113065023689B0709D5236802218B432360E36940
S11306609B07FCD1E3699B07FCD40123134323605C
S1130670E3699B07FCD1E369DB07FCD483001B1807
S11306809A00254B9B185B682360E3699B07FCD1A8
S113069083001B189A00204B9B189B686360E369D6
S11306A05B07FCD183001B189A001B4B9B185B68EB
S11306B09A040BD4C022D201134207D183001B1821
S11306C09A00154B9B189B89A38115E083001B1886
S11306D09A00114989188A89A389D204D20C5B0B28
S11306E05B031343A3818B7B07221A40A389520324
S11306F0DB04DB0C1343A381074A83001D18A90004
S11307000D005118C97BA1735219127C3023E25495
S1130710002070BDE90500003C1C000070B5050018
S11307200C00431E9841C0B2B4220449044B9847BC
S11307302C602000034B984770BDC0468C1C000001
S1130740D90400002D0600000268136802210B433F
S11307501360D3699B07FCD17047036889B219857C
S113076070470368188DC0B270470368187E012370
S11307701840704703681B7E5B08012018407047CF
S113078003681B7E9B080120184070470A4B0B4AE4
S11307909A829A6902210A439A611A7F1D310A409A
S11307A01A77054BDB689B07FBD5034A938A8021A4
S11307B00B439BB293827047000800400E02000076
S11307C08622D2011C4B5A8002221C4B9A841B4B5A
S11307D0DB68DB06FBD51A4A184BDA62194B1B6837
S11307E09B0E3F2B20D09B02802292001343134A7E
S11307F0936206239384938C5B0718D50F4BDA68B6
S1130800D0231340D02BF9D10C4A938C80210B4375
S11308109BB29384084B5B78DB09FBD1074A93694D
S113082002218B4393617047FC23DB01DFE7034B19
S1130830DB68DB06FBD5E7E7000C0040000800405E
S1130840B905010424608000024B034A5A60052262
S11308501A60704710E000E0FFFFFF0010B5014B85
S1130860984710BD49080000014B98687047C0467E
S113087010E000E0080E0BE00B4B0C485860986049
S1130880094B1B68DB03FBD5094B9C4661441000F4
S1130890421ED2B20028EFD1034B59609960024B3B
S11308A01B68DB03FBD5704710E000E0FFFFFF008F
S11308B0010000FF10B50B4B98470B480B4B9847B2
S11308C0FA2040000A4B98478021C9059C23C02286
S11308D0D205D1500020074B984701000648074B2A
S11308E09847EDE715010000A81C0000490C000022
S11308F0F102000069080000BC1C0000550B000058
S113090010B50B00002809D111001800054B9847B9
S1130910002800DB10BD01204042FBE701204042DB
S1130920F8E7C0467D09000010B50B000138022825
S113093009D811001800054B9847002800DB10BDAA
S113094001204042FBE701204042F8E7A1090000F2
S113095070B50600064D2B6898680021054CA04729
S11309602B6858680021A047034B1E6070BDC04629
S1130970000000205D0C00008800002010B5040079
S1130980054B1868002804D08AB22100034B98470D
S113099010BD0020FCE7C046880000204903000089
S11309A010B50400054B1868002804D08AB2210051
S11309B0034B984710BD0020FCE7C0468800002088
S11309C01103000010B5044C2000044B984720008C
S11309D0034B984710BDC04694000020AD040000AE
S11309E051090000002243088B4274D303098B424F
S11309F05FD3030A8B4244D3030B8B4228D3030CEB
S1130A008B420DD3FF22090212BA030C8B4202D38C
S1130A101212090265D0030B8B4219D300E0090AB4
S1130A20C30B8B4201D3CB03C01A5241830B8B42BD
S1130A3001D38B03C01A5241430B8B4201D34B03A6
S1130A40C01A5241030B8B4201D30B03C01A52410B
S1130A50C30A8B4201D3CB02C01A5241830A8B4290
S1130A6001D38B02C01A5241430A8B4201D34B0279
S1130A70C01A5241030A8B4201D30B02C01A5241DD
S1130A80CDD2C3098B4201D3CB01C01A5241830991
S1130A908B4201D38B01C01A524143098B4201D3CB
S1130AA04B01C01A524103098B4201D30B01C01AF6
S1130AB05241C3088B4201D3CB00C01A5241830870
S1130AC08B4201D38B00C01A524143088B4201D39D
S1130AD04B00C01A5241411A00D2014652411046FD
S1130AE07047FFE701B5002000F006F802BDC046DC
S1130AF00029F7D076E770477047C04670B50026E6
S1130B000C4D0D4C641BA410A64209D1002601F023
S1130B1025F90A4D0A4C641BA410A64205D170BDE8
S1130B20B300EB5898470136EEE7B300EB5898470B
S1130B300136F2E7681D0000681D0000681D000012
S1130B406C1D000003008218934200D17047197095
S1130B500133F9E70FB40B4B13B51C68002C05D017
S1130B60A369002B02D1200000F0F2FA05AB049A2D
S1130B70A1682000019300F0C7FC16BC08BC04B0B7
S1130B801847C0460000002070B505000E0000287C
S1130B9004D08369002B01D100F0DAFAAB69AC68A8
S1130BA0002B02D1280000F0D3FA244B9C420FD131
S1130BB06C68A3891B0702D52369002B20D121006F
S1130BC0280000F057F900281AD00120404270BDD7
S1130BD01B4B9C4201D1AC68EBE71A4B9C42E8D119
S1130BE0EC68E6E7013B0136A360002B04DAA26956
S1130BF0934216DB0A2914D023685A1C2260197008
S1130C003178A3680029EDD1013BA360002B0FDAF2
S1130C1022000A31280000F0D7F8431CD5D00A205E
S1130C20D5E72200280000F0CFF8431CE8D1CCE738
S1130C300A2023685A1C22601870C8E7E81C0000C8
S1130C40081D0000C81C000010B5034B0100186803
S1130C50FFF79AFF10BDC046000000204A424A41F7
S1130C60802310B55200DB0000F002F810BD000034
S1130C70F0B51D004F4B85B01E6804000F000092B4
S1130C80002E05D0B369002B02D1300000F060FAC9
S1130C90494B9C4250D17468009B022B05D0012B18
S1130CA000D984E0002D00DA81E02100300000F05A
S1130CB0E1F9616B002908D023004433994202D042
S1130CC0300000F051FB002363630023A3616360E1
S1130CD0A3891B0603D52169300000F045FBA389D5
S1130CE0364A1340A381009B022B5AD003AB02AABD
S1130CF02100300000F0C2FAA3891843A081002D1E
S1130D0024D1029D280000F025FB0195071E42D145
S1130D10029B0193AB4239D1012040420223A289B4
S1130D201343A3810023A36023004733236023617B
S1130D300123636105B0F0BD214B9C4201D1B4682D
S1130D40AAE7204B9C42A7D1F468A5E7002FD9D08D
S1130D50B369002B02D1300000F0FAF9009B012B9B
S1130D6003D1A389009A1A43A2810820A38927608A
S1130D7027616561184018D001201840002398426B
S1130D8011D06D42A360A5611800D3E7019800F06B
S1130D90E1FA071EC0D08023A289019D1343A381D9
S1130DA0D6E70020BAE7A560C4E7A060C2E7012047
S1130DB04042BFE700000020E81C00005CF3FFFF96
S1130DC0081D0000C81C0000F8B505000E00140042
S1130DD0002804D08369002B01D100F0B9F9224B1B
S1130DE09C422DD16C68A369A360A3891B0731D5EC
S1130DF02369002B2ED023682269F7B2981A6369FD
S1130E00F6B2984205DB2100280000F033F90028EF
S1130E1026D1A3680130013BA36023685A1C2260D9
S1130E201F706369984204D0A389DB071AD50A2E80
S1130E3018D12100280000F01DF9002812D00FE07D
S1130E400A4B9C4201D1AC68CDE7094B9C42CAD104
S1130E50EC68C8E72100280000F00CF80028CAD08C
S1130E60012676423000F8BDE81C0000081D000091
S1130E70C81C0000364B70B51D6806000C00002D20
S1130E8005D0AB69002B02D1280000F061F9314B89
S1130E909C420FD16C680C23E25E93B219072DD4E7
S1130EA0D90611D409230120336037331343A381B6
S1130EB0404270BD284B9C4201D1AC68EBE7274B04
S1130EC09C42E8D1EC68E6E75B0713D5616B002927
S1130ED008D023004433994202D0300000F044FA91
S1130EE0002363632422A3899343A38100236360C3
S1130EF0236923600823A2891343A3812369002B58
S1130F000BD1A0218022A389890092000B40934237
S1130F1003D02100300000F0D9F90123A289134045
S1130F2011D00023A36063695B42A361002023699D
S1130F308342BED10C23E25E1306BAD54023134389
S1130F40A3810138B5E7920700D46369A360EDE794
S1130F5000000020E81C0000081D0000C81C000060
S1130F60F7B58A8905000C00130760D44B68002B81
S1130F7004DC0B6C002B01DC0020FEBDE76A002FB3
S1130F80FAD000232E682B6080235B011A4034D0F2
S1130F90606DA3895B0706D56368C01A636B002B79
S1130FA001D0236CC01A0200216A00232800E76ADA
S1130FB0B847A189431C06D12B681D2B31D82C4A74
S1130FC0DA40D3072DD50023636023692360CB0463
S1130FD005D5431C02D12B68002B00D16065616BE1
S1130FE02E600029C8D023004433994202D028003F
S1130FF000F0BAF900206063BFE70123216A2800EA
S1131000B847431CC5D12B68002BC2D01D2B01D07F
S1131010162B01D12E60AFE74023A2891343A3818D
S1131020ABE740230B430120A3814042A5E70F69AE
S1131030002FA1D00B680F60DB1B019300239207E4
S113104000D14B69A360019B002B00DC94E7019B5A
S11310503A00216A2800A66AB047002803DC40232E
S1131060A2891343DFE7019B3F181B1A0193EAE7A8
S1131070010040200B6970B505000C00002B01D164
S1131080002070BD002804D08369002B01D100F03A
S11310905FF80B4B9C4209D16C680C22A35E002BB9
S11310A0EED021002800FFF75BFFEAE7054B9C42E6
S11310B001D1AC68F1E7044B9C42EED1EC68ECE75B
S11310C0E81C0000081D0000C81C000010B50249FF
S11310D000F0B2F810BDC04675100000002310B532
S11310E0040003604360836081814366C2810361BD
S11310F043618361190008225C30FFF723FD054B2F
S113110024626362044BA362044BE362044B2363D3
S113111010BDC046751A00009D1A0000D51A0000C3
S1131120011B000070B568254A1E55430E002900B6
S1131130743100F063F9041E08D000212A00016014
S113114046600C30A0606832FFF7FCFC200070BDE4
S1131150836913B50400002B28D18364C364036539
S1131160134B144A1B6882620193984201D10123F4
S11311708361200000F020F86060200000F01CF87B
S1131180A060200000F018F80022E06004216068EC
S1131190FFF7A4FF01220921A068FFF79FFF0222A5
S11311A01221E068FFF79AFF0123A36113BDC04633
S11311B0C41C0000CD100000F8B51E4B07001E68CB
S11311C0B369002B02D13000FFF7C2FF4836B46880
S11311D07368013B04D53368002B07D03668F6E703
S11311E00C22A55E002D0DD06834F2E704213800EE
S11311F0FFF798FF30600028F0D10C2304003B6017
S11312002000F8BD012320005B42E3810233A38167
S113121065662560A560656025616561A561082234
S113122029005C30FFF78EFC6563A563A564E56463
S1131230E6E7C046C41C0000F7B50400070000261A
S113124001914834002C01D13000FEBD6368A568CB
S11312500093009B013B009301D52468F2E7AB891E
S1131260012B08D90E22AB5E013304D029003800CB
S1131270019B984706436835EBE7000070B50E0004
S11312801D000E23C95E90B01400002907DA002364
S11312902B60B3891B0611D48023DB000FE001AA65
S11312A000F05AFC0028F2DBF022029B12021340E9
S11312B0054A9B185A4253412B60EDE74023002016
S11312C0236010B070BDC04600E0FFFFF7B50226F2
S11312D08B8905000C00334206D02300473323607A
S11312E0236101236361F7BD01AB6A46FFF7C6FFC3
S11312F000990700280000F081F8002808D10C228A
S1131300A35E9A05EFD4032293431E43A681E4E728
S11313100F4BAB628023A28920601343A381009BFF
S113132020616361019B002B0DD00E23E15E280038
S113133000F024FC002806D00322A38993431A005A
S113134001231343A381A0893843A081CBE7C0467E
S1131350CD10000010B5034B0100186800F04EF8E2
S113136010BDC0460000002070B50500002910D053
S11313700C1F2368002B00DAE418280000F02FFC6F
S11313801D4A1368002B05D163601460280000F027
S113139027FC70BDA34209D9216860188342F3D1A8
S11313A018685B6841182160EEE713005A68002A48
S11313B001D0A242F9D919685818A0420BD120686B
S11313C00918581819608242E0D11068526841180F
S11313D019605A60DAE7A04202D90C232B60D5E7E2
S11313E021686018824203D1106852684118216054
S11313F062605C60CAE7C0468C000020032370B5BD
S1131400CD1C9D43083506000C2D1ED20C25A94287
S11314101DD8300000F0E3FB254A146821000029A0
S113142019D1244C2368002B03D1300000F010FBA9
S113143020602900300000F00BFB431C2CD10C234E
S11314403000336000F0CCFB03E0002DDFDA0C2326
S11314503360002070BD0B685B1B1AD40B2B03D9BF
S11314600B60CC18256003E08C420ED163681360D6
S1131470300000F0B5FB200007220B30231D904301
S1131480C31AE7D05A42E250E4E74B6863600C00A9
S1131490EEE70C004968C2E70323C41C9C43A04246
S11314A0E0D0211A300000F0D3FA431CDAD1C6E7A9
S11314B08C00002090000020936810B5013B9360DD
S11314C0002B05DA9469A34208DBCBB20A2B05D0C2
S11314D01368581C10601970C8B210BDFFF774FC73
S11314E0FBE7F8B506000F001400D518AC4201D193
S11314F0002007E021783A003000FFF7DDFF0134D7
S1131500431CF3D1F8BD0000F0B59FB006000F00F6
S113151014000593002804D08369002B01D1FFF740
S113152017FE7F4B9F425CD17768BB891B0762D54E
S11315303B69002B5FD0002306AD6B6120336B76D3
S11315401033AB760294029C2378002B5DD1029B6E
S1131550E31A04930DD0049B029A39003000FFF77C
S1131560C0FF431C00D1CCE06A69049B94466344E9
S11315706B612378002B00D1C3E001220023524287
S11315806A6002A95432521801342B60EB60AB60DC
S11315901370AB6521780522624800F015FB631CCB
S11315A09C46002835D12968CB0604D5532302AACA
S11315B020309B1818700B0704D553232B2002AA44
S11315C09B18187023782A2B2CD000200A21099B01
S11315D02278303A092A00D86BE000282AD00993EF
S11315E028E0514B9F4201D1B7689EE74F4B9F4281
S11315F09BD1F76899E739003000FFF73BFC0028DE
S113160099D0012040421FB0F0BD252B9FD001345A
S11316109AE7444B2968C01A012383400B432B608B
S11316206446B7E7059B181D1B680590002B3ADB41
S11316300993644623782E2B0BD16378621C2A2BE2
S11316403FD1059B02341A1D1B680592002B35DB24
S1131650079321780322364800F0B6FA002807D011
S1131660334B2A68C01A4023834013432B60013450
S11316702178631C06222F480293297600F0A4FAED
S1131680002844D02C4B002B2FD12968059B07221E
S1131690C90528D59B189343083305936B69039AAE
S11316A09B186B614FE75B42EB6002230B432B609B
S11316B0BFE74B4301349B18012089E701235B42B8
S11316C0C6E7002314000A201A006B602178303921
S11316D0092903D9002BBCD00792BAE7424301344D
S11316E052180123F2E70733D5E705AB00933A001C
S11316F0124B2900300000E000BF0390039B01332C
S1131700CCD1BB895B0600D57BE70B987BE705ABA7
S113171000933A00094B2900300000F07FF8ECE711
S1131720E81C0000281D0000081D0000C81C000063
S11317302E1D0000321D000000000000E314000014
S1131740F7B5150001938A680B6900900C00934269
S113175000DA130022002B6043321278002A01D0F1
S113176001332B6023689B0602D52B6802332B6060
S1131770062723681F4027D0230043331B785A1EB3
S113178093412268920630D4220001994332009892
S1131790089EB047431C25D0062320682A68E168C8
S11317A003400025042B03D18D1AEB43DB171D40A6
S11317B0A3682269934201DD9B1AED180027BD42FC
S11317C020D1002010E00137E3682A689B1A9F4269
S11317D0D2DA22000123193201990098089EB047F9
S11317E0431CF0D101204042FEBD3020E1184331BA
S11317F0087021005A1C45310978A218433202337B
S11318001170C1E7220001231A3201990098089E41
S1131810B047431CE6D00137D1E70000F0B58BB0E8
S113182006920A0043320793059004920A7E0C0044
S1131830109B6E2A00D18FE017D8632A2CD008D8C9
S1131840002A00D199E0582A54D02600423632703A
S113185029E0642A01D0692AF7D121681A680806A8
S113186023D5111D1960156825E0732A00D188E07D
S113187008D86F2A29D0702AE7D1202209680A43A0
S1131880226003E0752A20D0782ADED12200782154
S1131890453211706C4A30E00E001A684236111D50
S11318A0196013683370012379E04906D9D5111DF5
S11318B019600023D55E002D03DA2D23049A6D42AE
S11318C01370624B0A2703932FE0206819680506FA
S11318D003D5081D18600D6805E04006F9D50D68AC
S11318E0081D1860ADB2594B082703936F2A18D00E
S11318F00A2716E045310A70544A03921A6821688F
S1131900101D18601568080622D5CB0702D52023C0
S1131910194321601027002D03D1202322689A4304
S113192022602300002243331A706368A360002BF3
S11319305CDB0422216891432160002D58D1049E70
S1131940002B64D02600039B42361B7833705EE084
S11319504806DAD5ADB2D8E709681A68080605D58D
S1131960111D1960136862691A6006E04906F7D50B
S1131970111D19601368A28A1A800023049E236132
S113198054E01A68111D196016680021626830005D
S113199000F01AF9002801D0801B6060636823619D
S11319A00023049A137041E02369320006990598D4
S11319B0079DA847431C43D0236800259B070FD4E9
S11319C0099BE06898423DDA18003BE022000123BD
S11319D0193206990598079EB047431C30D001354B
S11319E0E368099A9B1A9D42F0DBE9E7002DA9D030
S11319F0049E28003900FFF77BF8039B013E5B5CE3
S1131A00280033703900FEF7EDFF051EF1D1082FD1
S1131A1009D12368DB0706D563682269934202DC97
S1131A203023013E3370049B9B1B2361079B09AA4F
S1131A3000932100069B0598FFF782FE431CB3D157
S1131A40012040420BB0F0BD4A1D0000391D0000CA
S1131A50002370B5064C050008002360FEF740FD26
S1131A60431C03D12368002B00D02B6070BDC046FB
S1131A70A000002070B50C000E25495F00F0B2F8FC
S1131A80002803DB636D1B18636570BDA389024ADC
S1131A901340A381F9E7C046FFEFFFFFF8B51F002D
S1131AA08B8905000C001600DB0505D50E23C95EE5
S1131AB00022022300F074F8A389054A2800134089
S1131AC0A38132000E23E15E3B0000F01FF8F8BD55
S1131AD0FFEFFFFF70B50C000E25495F00F060F8C2
S1131AE0A389421C03D1054A1340A38170BD8022FF
S1131AF052011343A3816065F8E7C046FFEFFFFF7F
S1131B0010B50E23C95E00F015F810BD70B50500C0
S1131B10080011000022064C22601A00FEF704FFA0
S1131B20431C03D12368002B00D02B6070BDC0463A
S1131B30A0000020002370B5064C050008002360B7
S1131B40FEF7E0FC431C03D12368002B00D02B607C
S1131B5070BDC046A0000020002370B5064C0500EF
S1131B60080011002360FEF7D0FC431C03D1236856
S1131B70002B00D02B6070BDA0000020002370B5A6
S1131B80064C050008002360FEF7C4FC431C03D187
S1131B902368002B00D02B6070BDC046A00000203D
S1131BA070B50500080011000022064C22601A00DE
S1131BB0FEF7B2FC431C03D12368002B00D02B603A
S1131BC070BDC046A0000020C9B28218904201D165
S1131BD00020704703788B42FBD00130F6E7704752
S1131BE07047000070B50500080011000022064C83
S1131BF022601A00FEF784FE431C03D12368002BE5
S1131C0000D02B6070BDC046A00000202E2E2F688F
S1131C10616C2F7372632F68616C5F696F2E630050
S1131C202E2E2F68616C2F7372632F68616C5F7541
S1131C30736172745F73796E632E63000300000036
S1131C4004001040000003002BF600000000000018
S1131C500000000000000000000000000000000080
S1131C600000000000000000000000000000000070
S1131C700000000000000000000000000000000060
S1131C800000000000000000000000002E2E2F685D
S1131C90706C2F736572636F6D2F68706C5F736502
S1131CA072636F6D2E63000048656C6C6F20666C08
S1131CB061736865722E2E2E00000000256C640A84
S1131CC000000000040000200000000000000000EC
S1131CD00000000000000000000000000000000000
S1131CE000000000000000000000000000000000F0
S1131CF000000000000000000000000000000000E0
S1131D0000000000000000000000000000000000CF
S1131D1000000000000000000000000000000000BF
S1131D200000000000000000232D302B2000686C10
S1131D304C006566674546470030313233343536EA
S1131D403738394142434445460030313233343523
S1131D50363738396162636465660000F8B5C04699
S1131D60F8BC08BC9E467047DD000000F8B5C046CC
S10F1D70F8BC08BC9E467047B50000009B
S1131D7C0400002000000000E81C0000081D000006
S1131D8CC81C00000000000000000000000000005F
S1131D9C0000000000000000000000000000000033
S1131DAC0000000000000000000000000000000023
S1131DBC0000000000000000000000000000000013
S1131DCC0000000000000000000000000000000003
S1071DDC00000000FF
S9030000FC
